{
  "_format": "hh-sol-artifact-1",
  "contractName": "BookDataBase",
  "sourceName": "contracts/BookDataBase.sol",
  "abi": [
    {
      "inputs": [],
      "stateMutability": "nonpayable",
      "type": "constructor"
    },
    {
      "inputs": [
        {
          "components": [
            {
              "internalType": "string",
              "name": "title",
              "type": "string"
            },
            {
              "internalType": "uint16",
              "name": "year",
              "type": "uint16"
            }
          ],
          "internalType": "struct BookDataBase.Book",
          "name": "newBook",
          "type": "tuple"
        }
      ],
      "name": "addBook",
      "outputs": [],
      "stateMutability": "nonpayable",
      "type": "function"
    },
    {
      "inputs": [
        {
          "internalType": "uint32",
          "name": "",
          "type": "uint32"
        }
      ],
      "name": "books",
      "outputs": [
        {
          "internalType": "string",
          "name": "title",
          "type": "string"
        },
        {
          "internalType": "uint16",
          "name": "year",
          "type": "uint16"
        }
      ],
      "stateMutability": "view",
      "type": "function"
    },
    {
      "inputs": [],
      "name": "count",
      "outputs": [
        {
          "internalType": "uint256",
          "name": "",
          "type": "uint256"
        }
      ],
      "stateMutability": "view",
      "type": "function"
    },
    {
      "inputs": [
        {
          "internalType": "uint32",
          "name": "id",
          "type": "uint32"
        },
        {
          "components": [
            {
              "internalType": "string",
              "name": "title",
              "type": "string"
            },
            {
              "internalType": "uint16",
              "name": "year",
              "type": "uint16"
            }
          ],
          "internalType": "struct BookDataBase.Book",
          "name": "newBook",
          "type": "tuple"
        }
      ],
      "name": "editBook",
      "outputs": [],
      "stateMutability": "nonpayable",
      "type": "function"
    },
    {
      "inputs": [
        {
          "internalType": "uint32",
          "name": "id",
          "type": "uint32"
        }
      ],
      "name": "removeBook",
      "outputs": [],
      "stateMutability": "nonpayable",
      "type": "function"
    }
  ],
  "bytecode": "0x60a060405260008060006101000a81548163ffffffff021916908363ffffffff16021790555034801561003157600080fd5b503373ffffffffffffffffffffffffffffffffffffffff1660808173ffffffffffffffffffffffffffffffffffffffff1681525050608051610e2a61008160003960006102a00152610e2a6000f3fe608060405234801561001057600080fd5b50600436106100575760003560e01c806306661abd1461005c57806368d748ca1461007a578063b19a4635146100ab578063e9e7ff0c146100c7578063feaeb5ab146100e3575b600080fd5b6100646100ff565b6040516100719190610616565b60405180910390f35b610094600480360381019061008f9190610681565b610105565b6040516100a292919061075b565b60405180910390f35b6100c560048036038101906100c09190610962565b6101bf565b005b6100e160048036038101906100dc9190610681565b610287565b005b6100fd60048036038101906100f891906109ab565b6103a6565b005b60025481565b600160205280600052604060002060009150905080600001805461012890610a36565b80601f016020809104026020016040519081016040528092919081815260200182805461015490610a36565b80156101a15780601f10610176576101008083540402835291602001916101a1565b820191906000526020600020905b81548152906001019060200180831161018457829003601f168201915b5050505050908060010160009054906101000a900461ffff16905082565b60008081819054906101000a900463ffffffff16809291906101e090610a96565b91906101000a81548163ffffffff021916908363ffffffff1602179055505080600160008060009054906101000a900463ffffffff1663ffffffff1663ffffffff16815260200190815260200160002060008201518160000190816102459190610c6e565b5060208201518160010160006101000a81548161ffff021916908361ffff1602179055509050506002600081548092919061027f90610d40565b919050555050565b3373ffffffffffffffffffffffffffffffffffffffff167f000000000000000000000000000000000000000000000000000000000000000073ffffffffffffffffffffffffffffffffffffffff1614610315576040517f08c379a000000000000000000000000000000000000000000000000000000000815260040161030c90610dd4565b60405180910390fd5b6000600160008363ffffffff1663ffffffff16815260200190815260200160002060010160009054906101000a900461ffff1661ffff1611156103a357600160008263ffffffff1663ffffffff1681526020019081526020016000206000808201600061038291906105a0565b6001820160006101000a81549061ffff021916905550506001600254036002555b50565b6000600160008463ffffffff1663ffffffff1681526020019081526020016000206040518060400160405290816000820180546103e290610a36565b80601f016020809104026020016040519081016040528092919081815260200182805461040e90610a36565b801561045b5780601f106104305761010080835404028352916020019161045b565b820191906000526020600020905b81548152906001019060200180831161043e57829003601f168201915b505050505081526020016001820160009054906101000a900461ffff1661ffff1661ffff168152505090506104988160000151836000015161056d565b1580156104bf57506104bd82600001516040518060200160405280600081525061056d565b155b156104f9578160000151600160008563ffffffff1663ffffffff16815260200190815260200160002060000190816104f79190610c6e565b505b816020015161ffff16816020015161ffff161415801561052157506000826020015161ffff16115b15610568578160200151600160008563ffffffff1663ffffffff16815260200190815260200160002060010160006101000a81548161ffff021916908361ffff1602179055505b505050565b600080839050600083905080518251148015610596575080805190602001208280519060200120145b9250505092915050565b5080546105ac90610a36565b6000825580601f106105be57506105dd565b601f0160209004906000526020600020908101906105dc91906105e0565b5b50565b5b808211156105f95760008160009055506001016105e1565b5090565b6000819050919050565b610610816105fd565b82525050565b600060208201905061062b6000830184610607565b92915050565b6000604051905090565b600080fd5b600080fd5b600063ffffffff82169050919050565b61065e81610645565b811461066957600080fd5b50565b60008135905061067b81610655565b92915050565b6000602082840312156106975761069661063b565b5b60006106a58482850161066c565b91505092915050565b600081519050919050565b600082825260208201905092915050565b60005b838110156106e85780820151818401526020810190506106cd565b60008484015250505050565b6000601f19601f8301169050919050565b6000610710826106ae565b61071a81856106b9565b935061072a8185602086016106ca565b610733816106f4565b840191505092915050565b600061ffff82169050919050565b6107558161073e565b82525050565b600060408201905081810360008301526107758185610705565b9050610784602083018461074c565b9392505050565b600080fd5b7f4e487b7100000000000000000000000000000000000000000000000000000000600052604160045260246000fd5b6107c8826106f4565b810181811067ffffffffffffffff821117156107e7576107e6610790565b5b80604052505050565b60006107fa610631565b905061080682826107bf565b919050565b600080fd5b600080fd5b600080fd5b600067ffffffffffffffff82111561083557610834610790565b5b61083e826106f4565b9050602081019050919050565b82818337600083830152505050565b600061086d6108688461081a565b6107f0565b90508281526020810184848401111561088957610888610815565b5b61089484828561084b565b509392505050565b600082601f8301126108b1576108b0610810565b5b81356108c184826020860161085a565b91505092915050565b6108d38161073e565b81146108de57600080fd5b50565b6000813590506108f0816108ca565b92915050565b60006040828403121561090c5761090b61078b565b5b61091660406107f0565b9050600082013567ffffffffffffffff8111156109365761093561080b565b5b6109428482850161089c565b6000830152506020610956848285016108e1565b60208301525092915050565b6000602082840312156109785761097761063b565b5b600082013567ffffffffffffffff81111561099657610995610640565b5b6109a2848285016108f6565b91505092915050565b600080604083850312156109c2576109c161063b565b5b60006109d08582860161066c565b925050602083013567ffffffffffffffff8111156109f1576109f0610640565b5b6109fd858286016108f6565b9150509250929050565b7f4e487b7100000000000000000000000000000000000000000000000000000000600052602260045260246000fd5b60006002820490506001821680610a4e57607f821691505b602082108103610a6157610a60610a07565b5b50919050565b7f4e487b7100000000000000000000000000000000000000000000000000000000600052601160045260246000fd5b6000610aa182610645565b915063ffffffff8203610ab757610ab6610a67565b5b600182019050919050565b60008190508160005260206000209050919050565b60006020601f8301049050919050565b600082821b905092915050565b600060088302610b247fffffffffffffffffffffffffffffffffffffffffffffffffffffffffffffffff82610ae7565b610b2e8683610ae7565b95508019841693508086168417925050509392505050565b6000819050919050565b6000610b6b610b66610b61846105fd565b610b46565b6105fd565b9050919050565b6000819050919050565b610b8583610b50565b610b99610b9182610b72565b848454610af4565b825550505050565b600090565b610bae610ba1565b610bb9818484610b7c565b505050565b5b81811015610bdd57610bd2600082610ba6565b600181019050610bbf565b5050565b601f821115610c2257610bf381610ac2565b610bfc84610ad7565b81016020851015610c0b578190505b610c1f610c1785610ad7565b830182610bbe565b50505b505050565b600082821c905092915050565b6000610c4560001984600802610c27565b1980831691505092915050565b6000610c5e8383610c34565b9150826002028217905092915050565b610c77826106ae565b67ffffffffffffffff811115610c9057610c8f610790565b5b610c9a8254610a36565b610ca5828285610be1565b600060209050601f831160018114610cd85760008415610cc6578287015190505b610cd08582610c52565b865550610d38565b601f198416610ce686610ac2565b60005b82811015610d0e57848901518255600182019150602085019450602081019050610ce9565b86831015610d2b5784890151610d27601f891682610c34565b8355505b6001600288020188555050505b505050505050565b6000610d4b826105fd565b91507fffffffffffffffffffffffffffffffffffffffffffffffffffffffffffffffff8203610d7d57610d7c610a67565b5b600182019050919050565b7f596f7520646f6e27742068617665207065726d697373696f6e2e000000000000600082015250565b6000610dbe601a836106b9565b9150610dc982610d88565b602082019050919050565b60006020820190508181036000830152610ded81610db1565b905091905056fea26469706673582212204d1b70dffd4895cc85fd02a543e0050b4fd98e2b9c0e29d4dee6aef010edfac964736f6c63430008180033",
  "linkReferences": {},
  "deployedLinkReferences": {}
}