{
  "contracts/BookDataBase.sol": {
    "BookDataBase": {
      "abi": [
        {
          "inputs": [],
          "stateMutability": "nonpayable",
          "type": "constructor"
        },
        {
          "inputs": [
            {
              "components": [
                {
                  "internalType": "string",
                  "name": "title",
                  "type": "string"
                },
                {
                  "internalType": "uint16",
                  "name": "year",
                  "type": "uint16"
                }
              ],
              "internalType": "struct BookDataBase.Book",
              "name": "newBook",
              "type": "tuple"
            }
          ],
          "name": "addBook",
          "outputs": [],
          "stateMutability": "nonpayable",
          "type": "function"
        },
        {
          "inputs": [
            {
              "internalType": "uint32",
              "name": "",
              "type": "uint32"
            }
          ],
          "name": "books",
          "outputs": [
            {
              "internalType": "string",
              "name": "title",
              "type": "string"
            },
            {
              "internalType": "uint16",
              "name": "year",
              "type": "uint16"
            }
          ],
          "stateMutability": "view",
          "type": "function"
        },
        {
          "inputs": [],
          "name": "count",
          "outputs": [
            {
              "internalType": "uint256",
              "name": "",
              "type": "uint256"
            }
          ],
          "stateMutability": "view",
          "type": "function"
        },
        {
          "inputs": [
            {
              "internalType": "uint32",
              "name": "id",
              "type": "uint32"
            },
            {
              "components": [
                {
                  "internalType": "string",
                  "name": "title",
                  "type": "string"
                },
                {
                  "internalType": "uint16",
                  "name": "year",
                  "type": "uint16"
                }
              ],
              "internalType": "struct BookDataBase.Book",
              "name": "newBook",
              "type": "tuple"
            }
          ],
          "name": "editBook",
          "outputs": [],
          "stateMutability": "nonpayable",
          "type": "function"
        },
        {
          "inputs": [
            {
              "internalType": "uint32",
              "name": "id",
              "type": "uint32"
            }
          ],
          "name": "removeBook",
          "outputs": [],
          "stateMutability": "nonpayable",
          "type": "function"
        }
      ],
      "evm": {
        "bytecode": {
          "linkReferences": {},
          "object": "60a060405260008060006101000a81548163ffffffff021916908363ffffffff16021790555034801561003157600080fd5b503373ffffffffffffffffffffffffffffffffffffffff1660808173ffffffffffffffffffffffffffffffffffffffff1681525050608051610e2a61008160003960006102a00152610e2a6000f3fe608060405234801561001057600080fd5b50600436106100575760003560e01c806306661abd1461005c57806368d748ca1461007a578063b19a4635146100ab578063e9e7ff0c146100c7578063feaeb5ab146100e3575b600080fd5b6100646100ff565b6040516100719190610616565b60405180910390f35b610094600480360381019061008f9190610681565b610105565b6040516100a292919061075b565b60405180910390f35b6100c560048036038101906100c09190610962565b6101bf565b005b6100e160048036038101906100dc9190610681565b610287565b005b6100fd60048036038101906100f891906109ab565b6103a6565b005b60025481565b600160205280600052604060002060009150905080600001805461012890610a36565b80601f016020809104026020016040519081016040528092919081815260200182805461015490610a36565b80156101a15780601f10610176576101008083540402835291602001916101a1565b820191906000526020600020905b81548152906001019060200180831161018457829003601f168201915b5050505050908060010160009054906101000a900461ffff16905082565b60008081819054906101000a900463ffffffff16809291906101e090610a96565b91906101000a81548163ffffffff021916908363ffffffff1602179055505080600160008060009054906101000a900463ffffffff1663ffffffff1663ffffffff16815260200190815260200160002060008201518160000190816102459190610c6e565b5060208201518160010160006101000a81548161ffff021916908361ffff1602179055509050506002600081548092919061027f90610d40565b919050555050565b3373ffffffffffffffffffffffffffffffffffffffff167f000000000000000000000000000000000000000000000000000000000000000073ffffffffffffffffffffffffffffffffffffffff1614610315576040517f08c379a000000000000000000000000000000000000000000000000000000000815260040161030c90610dd4565b60405180910390fd5b6000600160008363ffffffff1663ffffffff16815260200190815260200160002060010160009054906101000a900461ffff1661ffff1611156103a357600160008263ffffffff1663ffffffff1681526020019081526020016000206000808201600061038291906105a0565b6001820160006101000a81549061ffff021916905550506001600254036002555b50565b6000600160008463ffffffff1663ffffffff1681526020019081526020016000206040518060400160405290816000820180546103e290610a36565b80601f016020809104026020016040519081016040528092919081815260200182805461040e90610a36565b801561045b5780601f106104305761010080835404028352916020019161045b565b820191906000526020600020905b81548152906001019060200180831161043e57829003601f168201915b505050505081526020016001820160009054906101000a900461ffff1661ffff1661ffff168152505090506104988160000151836000015161056d565b1580156104bf57506104bd82600001516040518060200160405280600081525061056d565b155b156104f9578160000151600160008563ffffffff1663ffffffff16815260200190815260200160002060000190816104f79190610c6e565b505b816020015161ffff16816020015161ffff161415801561052157506000826020015161ffff16115b15610568578160200151600160008563ffffffff1663ffffffff16815260200190815260200160002060010160006101000a81548161ffff021916908361ffff1602179055505b505050565b600080839050600083905080518251148015610596575080805190602001208280519060200120145b9250505092915050565b5080546105ac90610a36565b6000825580601f106105be57506105dd565b601f0160209004906000526020600020908101906105dc91906105e0565b5b50565b5b808211156105f95760008160009055506001016105e1565b5090565b6000819050919050565b610610816105fd565b82525050565b600060208201905061062b6000830184610607565b92915050565b6000604051905090565b600080fd5b600080fd5b600063ffffffff82169050919050565b61065e81610645565b811461066957600080fd5b50565b60008135905061067b81610655565b92915050565b6000602082840312156106975761069661063b565b5b60006106a58482850161066c565b91505092915050565b600081519050919050565b600082825260208201905092915050565b60005b838110156106e85780820151818401526020810190506106cd565b60008484015250505050565b6000601f19601f8301169050919050565b6000610710826106ae565b61071a81856106b9565b935061072a8185602086016106ca565b610733816106f4565b840191505092915050565b600061ffff82169050919050565b6107558161073e565b82525050565b600060408201905081810360008301526107758185610705565b9050610784602083018461074c565b9392505050565b600080fd5b7f4e487b7100000000000000000000000000000000000000000000000000000000600052604160045260246000fd5b6107c8826106f4565b810181811067ffffffffffffffff821117156107e7576107e6610790565b5b80604052505050565b60006107fa610631565b905061080682826107bf565b919050565b600080fd5b600080fd5b600080fd5b600067ffffffffffffffff82111561083557610834610790565b5b61083e826106f4565b9050602081019050919050565b82818337600083830152505050565b600061086d6108688461081a565b6107f0565b90508281526020810184848401111561088957610888610815565b5b61089484828561084b565b509392505050565b600082601f8301126108b1576108b0610810565b5b81356108c184826020860161085a565b91505092915050565b6108d38161073e565b81146108de57600080fd5b50565b6000813590506108f0816108ca565b92915050565b60006040828403121561090c5761090b61078b565b5b61091660406107f0565b9050600082013567ffffffffffffffff8111156109365761093561080b565b5b6109428482850161089c565b6000830152506020610956848285016108e1565b60208301525092915050565b6000602082840312156109785761097761063b565b5b600082013567ffffffffffffffff81111561099657610995610640565b5b6109a2848285016108f6565b91505092915050565b600080604083850312156109c2576109c161063b565b5b60006109d08582860161066c565b925050602083013567ffffffffffffffff8111156109f1576109f0610640565b5b6109fd858286016108f6565b9150509250929050565b7f4e487b7100000000000000000000000000000000000000000000000000000000600052602260045260246000fd5b60006002820490506001821680610a4e57607f821691505b602082108103610a6157610a60610a07565b5b50919050565b7f4e487b7100000000000000000000000000000000000000000000000000000000600052601160045260246000fd5b6000610aa182610645565b915063ffffffff8203610ab757610ab6610a67565b5b600182019050919050565b60008190508160005260206000209050919050565b60006020601f8301049050919050565b600082821b905092915050565b600060088302610b247fffffffffffffffffffffffffffffffffffffffffffffffffffffffffffffffff82610ae7565b610b2e8683610ae7565b95508019841693508086168417925050509392505050565b6000819050919050565b6000610b6b610b66610b61846105fd565b610b46565b6105fd565b9050919050565b6000819050919050565b610b8583610b50565b610b99610b9182610b72565b848454610af4565b825550505050565b600090565b610bae610ba1565b610bb9818484610b7c565b505050565b5b81811015610bdd57610bd2600082610ba6565b600181019050610bbf565b5050565b601f821115610c2257610bf381610ac2565b610bfc84610ad7565b81016020851015610c0b578190505b610c1f610c1785610ad7565b830182610bbe565b50505b505050565b600082821c905092915050565b6000610c4560001984600802610c27565b1980831691505092915050565b6000610c5e8383610c34565b9150826002028217905092915050565b610c77826106ae565b67ffffffffffffffff811115610c9057610c8f610790565b5b610c9a8254610a36565b610ca5828285610be1565b600060209050601f831160018114610cd85760008415610cc6578287015190505b610cd08582610c52565b865550610d38565b601f198416610ce686610ac2565b60005b82811015610d0e57848901518255600182019150602085019450602081019050610ce9565b86831015610d2b5784890151610d27601f891682610c34565b8355505b6001600288020188555050505b505050505050565b6000610d4b826105fd565b91507fffffffffffffffffffffffffffffffffffffffffffffffffffffffffffffffff8203610d7d57610d7c610a67565b5b600182019050919050565b7f596f7520646f6e27742068617665207065726d697373696f6e2e000000000000600082015250565b6000610dbe601a836106b9565b9150610dc982610d88565b602082019050919050565b60006020820190508181036000830152610ded81610db1565b905091905056fea26469706673582212204d1b70dffd4895cc85fd02a543e0050b4fd98e2b9c0e29d4dee6aef010edfac964736f6c63430008180033",
          "opcodes": "PUSH1 0xA0 PUSH1 0x40 MSTORE PUSH1 0x0 DUP1 PUSH1 0x0 PUSH2 0x100 EXP DUP2 SLOAD DUP2 PUSH4 0xFFFFFFFF MUL NOT AND SWAP1 DUP4 PUSH4 0xFFFFFFFF AND MUL OR SWAP1 SSTORE POP CALLVALUE DUP1 ISZERO PUSH2 0x31 JUMPI PUSH1 0x0 DUP1 REVERT JUMPDEST POP CALLER PUSH20 0xFFFFFFFFFFFFFFFFFFFFFFFFFFFFFFFFFFFFFFFF AND PUSH1 0x80 DUP2 PUSH20 0xFFFFFFFFFFFFFFFFFFFFFFFFFFFFFFFFFFFFFFFF AND DUP2 MSTORE POP POP PUSH1 0x80 MLOAD PUSH2 0xE2A PUSH2 0x81 PUSH1 0x0 CODECOPY PUSH1 0x0 PUSH2 0x2A0 ADD MSTORE PUSH2 0xE2A PUSH1 0x0 RETURN INVALID PUSH1 0x80 PUSH1 0x40 MSTORE CALLVALUE DUP1 ISZERO PUSH2 0x10 JUMPI PUSH1 0x0 DUP1 REVERT JUMPDEST POP PUSH1 0x4 CALLDATASIZE LT PUSH2 0x57 JUMPI PUSH1 0x0 CALLDATALOAD PUSH1 0xE0 SHR DUP1 PUSH4 0x6661ABD EQ PUSH2 0x5C JUMPI DUP1 PUSH4 0x68D748CA EQ PUSH2 0x7A JUMPI DUP1 PUSH4 0xB19A4635 EQ PUSH2 0xAB JUMPI DUP1 PUSH4 0xE9E7FF0C EQ PUSH2 0xC7 JUMPI DUP1 PUSH4 0xFEAEB5AB EQ PUSH2 0xE3 JUMPI JUMPDEST PUSH1 0x0 DUP1 REVERT JUMPDEST PUSH2 0x64 PUSH2 0xFF JUMP JUMPDEST PUSH1 0x40 MLOAD PUSH2 0x71 SWAP2 SWAP1 PUSH2 0x616 JUMP JUMPDEST PUSH1 0x40 MLOAD DUP1 SWAP2 SUB SWAP1 RETURN JUMPDEST PUSH2 0x94 PUSH1 0x4 DUP1 CALLDATASIZE SUB DUP2 ADD SWAP1 PUSH2 0x8F SWAP2 SWAP1 PUSH2 0x681 JUMP JUMPDEST PUSH2 0x105 JUMP JUMPDEST PUSH1 0x40 MLOAD PUSH2 0xA2 SWAP3 SWAP2 SWAP1 PUSH2 0x75B JUMP JUMPDEST PUSH1 0x40 MLOAD DUP1 SWAP2 SUB SWAP1 RETURN JUMPDEST PUSH2 0xC5 PUSH1 0x4 DUP1 CALLDATASIZE SUB DUP2 ADD SWAP1 PUSH2 0xC0 SWAP2 SWAP1 PUSH2 0x962 JUMP JUMPDEST PUSH2 0x1BF JUMP JUMPDEST STOP JUMPDEST PUSH2 0xE1 PUSH1 0x4 DUP1 CALLDATASIZE SUB DUP2 ADD SWAP1 PUSH2 0xDC SWAP2 SWAP1 PUSH2 0x681 JUMP JUMPDEST PUSH2 0x287 JUMP JUMPDEST STOP JUMPDEST PUSH2 0xFD PUSH1 0x4 DUP1 CALLDATASIZE SUB DUP2 ADD SWAP1 PUSH2 0xF8 SWAP2 SWAP1 PUSH2 0x9AB JUMP JUMPDEST PUSH2 0x3A6 JUMP JUMPDEST STOP JUMPDEST PUSH1 0x2 SLOAD DUP2 JUMP JUMPDEST PUSH1 0x1 PUSH1 0x20 MSTORE DUP1 PUSH1 0x0 MSTORE PUSH1 0x40 PUSH1 0x0 KECCAK256 PUSH1 0x0 SWAP2 POP SWAP1 POP DUP1 PUSH1 0x0 ADD DUP1 SLOAD PUSH2 0x128 SWAP1 PUSH2 0xA36 JUMP JUMPDEST DUP1 PUSH1 0x1F ADD PUSH1 0x20 DUP1 SWAP2 DIV MUL PUSH1 0x20 ADD PUSH1 0x40 MLOAD SWAP1 DUP2 ADD PUSH1 0x40 MSTORE DUP1 SWAP3 SWAP2 SWAP1 DUP2 DUP2 MSTORE PUSH1 0x20 ADD DUP3 DUP1 SLOAD PUSH2 0x154 SWAP1 PUSH2 0xA36 JUMP JUMPDEST DUP1 ISZERO PUSH2 0x1A1 JUMPI DUP1 PUSH1 0x1F LT PUSH2 0x176 JUMPI PUSH2 0x100 DUP1 DUP4 SLOAD DIV MUL DUP4 MSTORE SWAP2 PUSH1 0x20 ADD SWAP2 PUSH2 0x1A1 JUMP JUMPDEST DUP3 ADD SWAP2 SWAP1 PUSH1 0x0 MSTORE PUSH1 0x20 PUSH1 0x0 KECCAK256 SWAP1 JUMPDEST DUP2 SLOAD DUP2 MSTORE SWAP1 PUSH1 0x1 ADD SWAP1 PUSH1 0x20 ADD DUP1 DUP4 GT PUSH2 0x184 JUMPI DUP3 SWAP1 SUB PUSH1 0x1F AND DUP3 ADD SWAP2 JUMPDEST POP POP POP POP POP SWAP1 DUP1 PUSH1 0x1 ADD PUSH1 0x0 SWAP1 SLOAD SWAP1 PUSH2 0x100 EXP SWAP1 DIV PUSH2 0xFFFF AND SWAP1 POP DUP3 JUMP JUMPDEST PUSH1 0x0 DUP1 DUP2 DUP2 SWAP1 SLOAD SWAP1 PUSH2 0x100 EXP SWAP1 DIV PUSH4 0xFFFFFFFF AND DUP1 SWAP3 SWAP2 SWAP1 PUSH2 0x1E0 SWAP1 PUSH2 0xA96 JUMP JUMPDEST SWAP2 SWAP1 PUSH2 0x100 EXP DUP2 SLOAD DUP2 PUSH4 0xFFFFFFFF MUL NOT AND SWAP1 DUP4 PUSH4 0xFFFFFFFF AND MUL OR SWAP1 SSTORE POP POP DUP1 PUSH1 0x1 PUSH1 0x0 DUP1 PUSH1 0x0 SWAP1 SLOAD SWAP1 PUSH2 0x100 EXP SWAP1 DIV PUSH4 0xFFFFFFFF AND PUSH4 0xFFFFFFFF AND PUSH4 0xFFFFFFFF AND DUP2 MSTORE PUSH1 0x20 ADD SWAP1 DUP2 MSTORE PUSH1 0x20 ADD PUSH1 0x0 KECCAK256 PUSH1 0x0 DUP3 ADD MLOAD DUP2 PUSH1 0x0 ADD SWAP1 DUP2 PUSH2 0x245 SWAP2 SWAP1 PUSH2 0xC6E JUMP JUMPDEST POP PUSH1 0x20 DUP3 ADD MLOAD DUP2 PUSH1 0x1 ADD PUSH1 0x0 PUSH2 0x100 EXP DUP2 SLOAD DUP2 PUSH2 0xFFFF MUL NOT AND SWAP1 DUP4 PUSH2 0xFFFF AND MUL OR SWAP1 SSTORE POP SWAP1 POP POP PUSH1 0x2 PUSH1 0x0 DUP2 SLOAD DUP1 SWAP3 SWAP2 SWAP1 PUSH2 0x27F SWAP1 PUSH2 0xD40 JUMP JUMPDEST SWAP2 SWAP1 POP SSTORE POP POP JUMP JUMPDEST CALLER PUSH20 0xFFFFFFFFFFFFFFFFFFFFFFFFFFFFFFFFFFFFFFFF AND PUSH32 0x0 PUSH20 0xFFFFFFFFFFFFFFFFFFFFFFFFFFFFFFFFFFFFFFFF AND EQ PUSH2 0x315 JUMPI PUSH1 0x40 MLOAD PUSH32 0x8C379A000000000000000000000000000000000000000000000000000000000 DUP2 MSTORE PUSH1 0x4 ADD PUSH2 0x30C SWAP1 PUSH2 0xDD4 JUMP JUMPDEST PUSH1 0x40 MLOAD DUP1 SWAP2 SUB SWAP1 REVERT JUMPDEST PUSH1 0x0 PUSH1 0x1 PUSH1 0x0 DUP4 PUSH4 0xFFFFFFFF AND PUSH4 0xFFFFFFFF AND DUP2 MSTORE PUSH1 0x20 ADD SWAP1 DUP2 MSTORE PUSH1 0x20 ADD PUSH1 0x0 KECCAK256 PUSH1 0x1 ADD PUSH1 0x0 SWAP1 SLOAD SWAP1 PUSH2 0x100 EXP SWAP1 DIV PUSH2 0xFFFF AND PUSH2 0xFFFF AND GT ISZERO PUSH2 0x3A3 JUMPI PUSH1 0x1 PUSH1 0x0 DUP3 PUSH4 0xFFFFFFFF AND PUSH4 0xFFFFFFFF AND DUP2 MSTORE PUSH1 0x20 ADD SWAP1 DUP2 MSTORE PUSH1 0x20 ADD PUSH1 0x0 KECCAK256 PUSH1 0x0 DUP1 DUP3 ADD PUSH1 0x0 PUSH2 0x382 SWAP2 SWAP1 PUSH2 0x5A0 JUMP JUMPDEST PUSH1 0x1 DUP3 ADD PUSH1 0x0 PUSH2 0x100 EXP DUP2 SLOAD SWAP1 PUSH2 0xFFFF MUL NOT AND SWAP1 SSTORE POP POP PUSH1 0x1 PUSH1 0x2 SLOAD SUB PUSH1 0x2 SSTORE JUMPDEST POP JUMP JUMPDEST PUSH1 0x0 PUSH1 0x1 PUSH1 0x0 DUP5 PUSH4 0xFFFFFFFF AND PUSH4 0xFFFFFFFF AND DUP2 MSTORE PUSH1 0x20 ADD SWAP1 DUP2 MSTORE PUSH1 0x20 ADD PUSH1 0x0 KECCAK256 PUSH1 0x40 MLOAD DUP1 PUSH1 0x40 ADD PUSH1 0x40 MSTORE SWAP1 DUP2 PUSH1 0x0 DUP3 ADD DUP1 SLOAD PUSH2 0x3E2 SWAP1 PUSH2 0xA36 JUMP JUMPDEST DUP1 PUSH1 0x1F ADD PUSH1 0x20 DUP1 SWAP2 DIV MUL PUSH1 0x20 ADD PUSH1 0x40 MLOAD SWAP1 DUP2 ADD PUSH1 0x40 MSTORE DUP1 SWAP3 SWAP2 SWAP1 DUP2 DUP2 MSTORE PUSH1 0x20 ADD DUP3 DUP1 SLOAD PUSH2 0x40E SWAP1 PUSH2 0xA36 JUMP JUMPDEST DUP1 ISZERO PUSH2 0x45B JUMPI DUP1 PUSH1 0x1F LT PUSH2 0x430 JUMPI PUSH2 0x100 DUP1 DUP4 SLOAD DIV MUL DUP4 MSTORE SWAP2 PUSH1 0x20 ADD SWAP2 PUSH2 0x45B JUMP JUMPDEST DUP3 ADD SWAP2 SWAP1 PUSH1 0x0 MSTORE PUSH1 0x20 PUSH1 0x0 KECCAK256 SWAP1 JUMPDEST DUP2 SLOAD DUP2 MSTORE SWAP1 PUSH1 0x1 ADD SWAP1 PUSH1 0x20 ADD DUP1 DUP4 GT PUSH2 0x43E JUMPI DUP3 SWAP1 SUB PUSH1 0x1F AND DUP3 ADD SWAP2 JUMPDEST POP POP POP POP POP DUP2 MSTORE PUSH1 0x20 ADD PUSH1 0x1 DUP3 ADD PUSH1 0x0 SWAP1 SLOAD SWAP1 PUSH2 0x100 EXP SWAP1 DIV PUSH2 0xFFFF AND PUSH2 0xFFFF AND PUSH2 0xFFFF AND DUP2 MSTORE POP POP SWAP1 POP PUSH2 0x498 DUP2 PUSH1 0x0 ADD MLOAD DUP4 PUSH1 0x0 ADD MLOAD PUSH2 0x56D JUMP JUMPDEST ISZERO DUP1 ISZERO PUSH2 0x4BF JUMPI POP PUSH2 0x4BD DUP3 PUSH1 0x0 ADD MLOAD PUSH1 0x40 MLOAD DUP1 PUSH1 0x20 ADD PUSH1 0x40 MSTORE DUP1 PUSH1 0x0 DUP2 MSTORE POP PUSH2 0x56D JUMP JUMPDEST ISZERO JUMPDEST ISZERO PUSH2 0x4F9 JUMPI DUP2 PUSH1 0x0 ADD MLOAD PUSH1 0x1 PUSH1 0x0 DUP6 PUSH4 0xFFFFFFFF AND PUSH4 0xFFFFFFFF AND DUP2 MSTORE PUSH1 0x20 ADD SWAP1 DUP2 MSTORE PUSH1 0x20 ADD PUSH1 0x0 KECCAK256 PUSH1 0x0 ADD SWAP1 DUP2 PUSH2 0x4F7 SWAP2 SWAP1 PUSH2 0xC6E JUMP JUMPDEST POP JUMPDEST DUP2 PUSH1 0x20 ADD MLOAD PUSH2 0xFFFF AND DUP2 PUSH1 0x20 ADD MLOAD PUSH2 0xFFFF AND EQ ISZERO DUP1 ISZERO PUSH2 0x521 JUMPI POP PUSH1 0x0 DUP3 PUSH1 0x20 ADD MLOAD PUSH2 0xFFFF AND GT JUMPDEST ISZERO PUSH2 0x568 JUMPI DUP2 PUSH1 0x20 ADD MLOAD PUSH1 0x1 PUSH1 0x0 DUP6 PUSH4 0xFFFFFFFF AND PUSH4 0xFFFFFFFF AND DUP2 MSTORE PUSH1 0x20 ADD SWAP1 DUP2 MSTORE PUSH1 0x20 ADD PUSH1 0x0 KECCAK256 PUSH1 0x1 ADD PUSH1 0x0 PUSH2 0x100 EXP DUP2 SLOAD DUP2 PUSH2 0xFFFF MUL NOT AND SWAP1 DUP4 PUSH2 0xFFFF AND MUL OR SWAP1 SSTORE POP JUMPDEST POP POP POP JUMP JUMPDEST PUSH1 0x0 DUP1 DUP4 SWAP1 POP PUSH1 0x0 DUP4 SWAP1 POP DUP1 MLOAD DUP3 MLOAD EQ DUP1 ISZERO PUSH2 0x596 JUMPI POP DUP1 DUP1 MLOAD SWAP1 PUSH1 0x20 ADD KECCAK256 DUP3 DUP1 MLOAD SWAP1 PUSH1 0x20 ADD KECCAK256 EQ JUMPDEST SWAP3 POP POP POP SWAP3 SWAP2 POP POP JUMP JUMPDEST POP DUP1 SLOAD PUSH2 0x5AC SWAP1 PUSH2 0xA36 JUMP JUMPDEST PUSH1 0x0 DUP3 SSTORE DUP1 PUSH1 0x1F LT PUSH2 0x5BE JUMPI POP PUSH2 0x5DD JUMP JUMPDEST PUSH1 0x1F ADD PUSH1 0x20 SWAP1 DIV SWAP1 PUSH1 0x0 MSTORE PUSH1 0x20 PUSH1 0x0 KECCAK256 SWAP1 DUP2 ADD SWAP1 PUSH2 0x5DC SWAP2 SWAP1 PUSH2 0x5E0 JUMP JUMPDEST JUMPDEST POP JUMP JUMPDEST JUMPDEST DUP1 DUP3 GT ISZERO PUSH2 0x5F9 JUMPI PUSH1 0x0 DUP2 PUSH1 0x0 SWAP1 SSTORE POP PUSH1 0x1 ADD PUSH2 0x5E1 JUMP JUMPDEST POP SWAP1 JUMP JUMPDEST PUSH1 0x0 DUP2 SWAP1 POP SWAP2 SWAP1 POP JUMP JUMPDEST PUSH2 0x610 DUP2 PUSH2 0x5FD JUMP JUMPDEST DUP3 MSTORE POP POP JUMP JUMPDEST PUSH1 0x0 PUSH1 0x20 DUP3 ADD SWAP1 POP PUSH2 0x62B PUSH1 0x0 DUP4 ADD DUP5 PUSH2 0x607 JUMP JUMPDEST SWAP3 SWAP2 POP POP JUMP JUMPDEST PUSH1 0x0 PUSH1 0x40 MLOAD SWAP1 POP SWAP1 JUMP JUMPDEST PUSH1 0x0 DUP1 REVERT JUMPDEST PUSH1 0x0 DUP1 REVERT JUMPDEST PUSH1 0x0 PUSH4 0xFFFFFFFF DUP3 AND SWAP1 POP SWAP2 SWAP1 POP JUMP JUMPDEST PUSH2 0x65E DUP2 PUSH2 0x645 JUMP JUMPDEST DUP2 EQ PUSH2 0x669 JUMPI PUSH1 0x0 DUP1 REVERT JUMPDEST POP JUMP JUMPDEST PUSH1 0x0 DUP2 CALLDATALOAD SWAP1 POP PUSH2 0x67B DUP2 PUSH2 0x655 JUMP JUMPDEST SWAP3 SWAP2 POP POP JUMP JUMPDEST PUSH1 0x0 PUSH1 0x20 DUP3 DUP5 SUB SLT ISZERO PUSH2 0x697 JUMPI PUSH2 0x696 PUSH2 0x63B JUMP JUMPDEST JUMPDEST PUSH1 0x0 PUSH2 0x6A5 DUP5 DUP3 DUP6 ADD PUSH2 0x66C JUMP JUMPDEST SWAP2 POP POP SWAP3 SWAP2 POP POP JUMP JUMPDEST PUSH1 0x0 DUP2 MLOAD SWAP1 POP SWAP2 SWAP1 POP JUMP JUMPDEST PUSH1 0x0 DUP3 DUP3 MSTORE PUSH1 0x20 DUP3 ADD SWAP1 POP SWAP3 SWAP2 POP POP JUMP JUMPDEST PUSH1 0x0 JUMPDEST DUP4 DUP2 LT ISZERO PUSH2 0x6E8 JUMPI DUP1 DUP3 ADD MLOAD DUP2 DUP5 ADD MSTORE PUSH1 0x20 DUP2 ADD SWAP1 POP PUSH2 0x6CD JUMP JUMPDEST PUSH1 0x0 DUP5 DUP5 ADD MSTORE POP POP POP POP JUMP JUMPDEST PUSH1 0x0 PUSH1 0x1F NOT PUSH1 0x1F DUP4 ADD AND SWAP1 POP SWAP2 SWAP1 POP JUMP JUMPDEST PUSH1 0x0 PUSH2 0x710 DUP3 PUSH2 0x6AE JUMP JUMPDEST PUSH2 0x71A DUP2 DUP6 PUSH2 0x6B9 JUMP JUMPDEST SWAP4 POP PUSH2 0x72A DUP2 DUP6 PUSH1 0x20 DUP7 ADD PUSH2 0x6CA JUMP JUMPDEST PUSH2 0x733 DUP2 PUSH2 0x6F4 JUMP JUMPDEST DUP5 ADD SWAP2 POP POP SWAP3 SWAP2 POP POP JUMP JUMPDEST PUSH1 0x0 PUSH2 0xFFFF DUP3 AND SWAP1 POP SWAP2 SWAP1 POP JUMP JUMPDEST PUSH2 0x755 DUP2 PUSH2 0x73E JUMP JUMPDEST DUP3 MSTORE POP POP JUMP JUMPDEST PUSH1 0x0 PUSH1 0x40 DUP3 ADD SWAP1 POP DUP2 DUP2 SUB PUSH1 0x0 DUP4 ADD MSTORE PUSH2 0x775 DUP2 DUP6 PUSH2 0x705 JUMP JUMPDEST SWAP1 POP PUSH2 0x784 PUSH1 0x20 DUP4 ADD DUP5 PUSH2 0x74C JUMP JUMPDEST SWAP4 SWAP3 POP POP POP JUMP JUMPDEST PUSH1 0x0 DUP1 REVERT JUMPDEST PUSH32 0x4E487B7100000000000000000000000000000000000000000000000000000000 PUSH1 0x0 MSTORE PUSH1 0x41 PUSH1 0x4 MSTORE PUSH1 0x24 PUSH1 0x0 REVERT JUMPDEST PUSH2 0x7C8 DUP3 PUSH2 0x6F4 JUMP JUMPDEST DUP2 ADD DUP2 DUP2 LT PUSH8 0xFFFFFFFFFFFFFFFF DUP3 GT OR ISZERO PUSH2 0x7E7 JUMPI PUSH2 0x7E6 PUSH2 0x790 JUMP JUMPDEST JUMPDEST DUP1 PUSH1 0x40 MSTORE POP POP POP JUMP JUMPDEST PUSH1 0x0 PUSH2 0x7FA PUSH2 0x631 JUMP JUMPDEST SWAP1 POP PUSH2 0x806 DUP3 DUP3 PUSH2 0x7BF JUMP JUMPDEST SWAP2 SWAP1 POP JUMP JUMPDEST PUSH1 0x0 DUP1 REVERT JUMPDEST PUSH1 0x0 DUP1 REVERT JUMPDEST PUSH1 0x0 DUP1 REVERT JUMPDEST PUSH1 0x0 PUSH8 0xFFFFFFFFFFFFFFFF DUP3 GT ISZERO PUSH2 0x835 JUMPI PUSH2 0x834 PUSH2 0x790 JUMP JUMPDEST JUMPDEST PUSH2 0x83E DUP3 PUSH2 0x6F4 JUMP JUMPDEST SWAP1 POP PUSH1 0x20 DUP2 ADD SWAP1 POP SWAP2 SWAP1 POP JUMP JUMPDEST DUP3 DUP2 DUP4 CALLDATACOPY PUSH1 0x0 DUP4 DUP4 ADD MSTORE POP POP POP JUMP JUMPDEST PUSH1 0x0 PUSH2 0x86D PUSH2 0x868 DUP5 PUSH2 0x81A JUMP JUMPDEST PUSH2 0x7F0 JUMP JUMPDEST SWAP1 POP DUP3 DUP2 MSTORE PUSH1 0x20 DUP2 ADD DUP5 DUP5 DUP5 ADD GT ISZERO PUSH2 0x889 JUMPI PUSH2 0x888 PUSH2 0x815 JUMP JUMPDEST JUMPDEST PUSH2 0x894 DUP5 DUP3 DUP6 PUSH2 0x84B JUMP JUMPDEST POP SWAP4 SWAP3 POP POP POP JUMP JUMPDEST PUSH1 0x0 DUP3 PUSH1 0x1F DUP4 ADD SLT PUSH2 0x8B1 JUMPI PUSH2 0x8B0 PUSH2 0x810 JUMP JUMPDEST JUMPDEST DUP2 CALLDATALOAD PUSH2 0x8C1 DUP5 DUP3 PUSH1 0x20 DUP7 ADD PUSH2 0x85A JUMP JUMPDEST SWAP2 POP POP SWAP3 SWAP2 POP POP JUMP JUMPDEST PUSH2 0x8D3 DUP2 PUSH2 0x73E JUMP JUMPDEST DUP2 EQ PUSH2 0x8DE JUMPI PUSH1 0x0 DUP1 REVERT JUMPDEST POP JUMP JUMPDEST PUSH1 0x0 DUP2 CALLDATALOAD SWAP1 POP PUSH2 0x8F0 DUP2 PUSH2 0x8CA JUMP JUMPDEST SWAP3 SWAP2 POP POP JUMP JUMPDEST PUSH1 0x0 PUSH1 0x40 DUP3 DUP5 SUB SLT ISZERO PUSH2 0x90C JUMPI PUSH2 0x90B PUSH2 0x78B JUMP JUMPDEST JUMPDEST PUSH2 0x916 PUSH1 0x40 PUSH2 0x7F0 JUMP JUMPDEST SWAP1 POP PUSH1 0x0 DUP3 ADD CALLDATALOAD PUSH8 0xFFFFFFFFFFFFFFFF DUP2 GT ISZERO PUSH2 0x936 JUMPI PUSH2 0x935 PUSH2 0x80B JUMP JUMPDEST JUMPDEST PUSH2 0x942 DUP5 DUP3 DUP6 ADD PUSH2 0x89C JUMP JUMPDEST PUSH1 0x0 DUP4 ADD MSTORE POP PUSH1 0x20 PUSH2 0x956 DUP5 DUP3 DUP6 ADD PUSH2 0x8E1 JUMP JUMPDEST PUSH1 0x20 DUP4 ADD MSTORE POP SWAP3 SWAP2 POP POP JUMP JUMPDEST PUSH1 0x0 PUSH1 0x20 DUP3 DUP5 SUB SLT ISZERO PUSH2 0x978 JUMPI PUSH2 0x977 PUSH2 0x63B JUMP JUMPDEST JUMPDEST PUSH1 0x0 DUP3 ADD CALLDATALOAD PUSH8 0xFFFFFFFFFFFFFFFF DUP2 GT ISZERO PUSH2 0x996 JUMPI PUSH2 0x995 PUSH2 0x640 JUMP JUMPDEST JUMPDEST PUSH2 0x9A2 DUP5 DUP3 DUP6 ADD PUSH2 0x8F6 JUMP JUMPDEST SWAP2 POP POP SWAP3 SWAP2 POP POP JUMP JUMPDEST PUSH1 0x0 DUP1 PUSH1 0x40 DUP4 DUP6 SUB SLT ISZERO PUSH2 0x9C2 JUMPI PUSH2 0x9C1 PUSH2 0x63B JUMP JUMPDEST JUMPDEST PUSH1 0x0 PUSH2 0x9D0 DUP6 DUP3 DUP7 ADD PUSH2 0x66C JUMP JUMPDEST SWAP3 POP POP PUSH1 0x20 DUP4 ADD CALLDATALOAD PUSH8 0xFFFFFFFFFFFFFFFF DUP2 GT ISZERO PUSH2 0x9F1 JUMPI PUSH2 0x9F0 PUSH2 0x640 JUMP JUMPDEST JUMPDEST PUSH2 0x9FD DUP6 DUP3 DUP7 ADD PUSH2 0x8F6 JUMP JUMPDEST SWAP2 POP POP SWAP3 POP SWAP3 SWAP1 POP JUMP JUMPDEST PUSH32 0x4E487B7100000000000000000000000000000000000000000000000000000000 PUSH1 0x0 MSTORE PUSH1 0x22 PUSH1 0x4 MSTORE PUSH1 0x24 PUSH1 0x0 REVERT JUMPDEST PUSH1 0x0 PUSH1 0x2 DUP3 DIV SWAP1 POP PUSH1 0x1 DUP3 AND DUP1 PUSH2 0xA4E JUMPI PUSH1 0x7F DUP3 AND SWAP2 POP JUMPDEST PUSH1 0x20 DUP3 LT DUP2 SUB PUSH2 0xA61 JUMPI PUSH2 0xA60 PUSH2 0xA07 JUMP JUMPDEST JUMPDEST POP SWAP2 SWAP1 POP JUMP JUMPDEST PUSH32 0x4E487B7100000000000000000000000000000000000000000000000000000000 PUSH1 0x0 MSTORE PUSH1 0x11 PUSH1 0x4 MSTORE PUSH1 0x24 PUSH1 0x0 REVERT JUMPDEST PUSH1 0x0 PUSH2 0xAA1 DUP3 PUSH2 0x645 JUMP JUMPDEST SWAP2 POP PUSH4 0xFFFFFFFF DUP3 SUB PUSH2 0xAB7 JUMPI PUSH2 0xAB6 PUSH2 0xA67 JUMP JUMPDEST JUMPDEST PUSH1 0x1 DUP3 ADD SWAP1 POP SWAP2 SWAP1 POP JUMP JUMPDEST PUSH1 0x0 DUP2 SWAP1 POP DUP2 PUSH1 0x0 MSTORE PUSH1 0x20 PUSH1 0x0 KECCAK256 SWAP1 POP SWAP2 SWAP1 POP JUMP JUMPDEST PUSH1 0x0 PUSH1 0x20 PUSH1 0x1F DUP4 ADD DIV SWAP1 POP SWAP2 SWAP1 POP JUMP JUMPDEST PUSH1 0x0 DUP3 DUP3 SHL SWAP1 POP SWAP3 SWAP2 POP POP JUMP JUMPDEST PUSH1 0x0 PUSH1 0x8 DUP4 MUL PUSH2 0xB24 PUSH32 0xFFFFFFFFFFFFFFFFFFFFFFFFFFFFFFFFFFFFFFFFFFFFFFFFFFFFFFFFFFFFFFFF DUP3 PUSH2 0xAE7 JUMP JUMPDEST PUSH2 0xB2E DUP7 DUP4 PUSH2 0xAE7 JUMP JUMPDEST SWAP6 POP DUP1 NOT DUP5 AND SWAP4 POP DUP1 DUP7 AND DUP5 OR SWAP3 POP POP POP SWAP4 SWAP3 POP POP POP JUMP JUMPDEST PUSH1 0x0 DUP2 SWAP1 POP SWAP2 SWAP1 POP JUMP JUMPDEST PUSH1 0x0 PUSH2 0xB6B PUSH2 0xB66 PUSH2 0xB61 DUP5 PUSH2 0x5FD JUMP JUMPDEST PUSH2 0xB46 JUMP JUMPDEST PUSH2 0x5FD JUMP JUMPDEST SWAP1 POP SWAP2 SWAP1 POP JUMP JUMPDEST PUSH1 0x0 DUP2 SWAP1 POP SWAP2 SWAP1 POP JUMP JUMPDEST PUSH2 0xB85 DUP4 PUSH2 0xB50 JUMP JUMPDEST PUSH2 0xB99 PUSH2 0xB91 DUP3 PUSH2 0xB72 JUMP JUMPDEST DUP5 DUP5 SLOAD PUSH2 0xAF4 JUMP JUMPDEST DUP3 SSTORE POP POP POP POP JUMP JUMPDEST PUSH1 0x0 SWAP1 JUMP JUMPDEST PUSH2 0xBAE PUSH2 0xBA1 JUMP JUMPDEST PUSH2 0xBB9 DUP2 DUP5 DUP5 PUSH2 0xB7C JUMP JUMPDEST POP POP POP JUMP JUMPDEST JUMPDEST DUP2 DUP2 LT ISZERO PUSH2 0xBDD JUMPI PUSH2 0xBD2 PUSH1 0x0 DUP3 PUSH2 0xBA6 JUMP JUMPDEST PUSH1 0x1 DUP2 ADD SWAP1 POP PUSH2 0xBBF JUMP JUMPDEST POP POP JUMP JUMPDEST PUSH1 0x1F DUP3 GT ISZERO PUSH2 0xC22 JUMPI PUSH2 0xBF3 DUP2 PUSH2 0xAC2 JUMP JUMPDEST PUSH2 0xBFC DUP5 PUSH2 0xAD7 JUMP JUMPDEST DUP2 ADD PUSH1 0x20 DUP6 LT ISZERO PUSH2 0xC0B JUMPI DUP2 SWAP1 POP JUMPDEST PUSH2 0xC1F PUSH2 0xC17 DUP6 PUSH2 0xAD7 JUMP JUMPDEST DUP4 ADD DUP3 PUSH2 0xBBE JUMP JUMPDEST POP POP JUMPDEST POP POP POP JUMP JUMPDEST PUSH1 0x0 DUP3 DUP3 SHR SWAP1 POP SWAP3 SWAP2 POP POP JUMP JUMPDEST PUSH1 0x0 PUSH2 0xC45 PUSH1 0x0 NOT DUP5 PUSH1 0x8 MUL PUSH2 0xC27 JUMP JUMPDEST NOT DUP1 DUP4 AND SWAP2 POP POP SWAP3 SWAP2 POP POP JUMP JUMPDEST PUSH1 0x0 PUSH2 0xC5E DUP4 DUP4 PUSH2 0xC34 JUMP JUMPDEST SWAP2 POP DUP3 PUSH1 0x2 MUL DUP3 OR SWAP1 POP SWAP3 SWAP2 POP POP JUMP JUMPDEST PUSH2 0xC77 DUP3 PUSH2 0x6AE JUMP JUMPDEST PUSH8 0xFFFFFFFFFFFFFFFF DUP2 GT ISZERO PUSH2 0xC90 JUMPI PUSH2 0xC8F PUSH2 0x790 JUMP JUMPDEST JUMPDEST PUSH2 0xC9A DUP3 SLOAD PUSH2 0xA36 JUMP JUMPDEST PUSH2 0xCA5 DUP3 DUP3 DUP6 PUSH2 0xBE1 JUMP JUMPDEST PUSH1 0x0 PUSH1 0x20 SWAP1 POP PUSH1 0x1F DUP4 GT PUSH1 0x1 DUP2 EQ PUSH2 0xCD8 JUMPI PUSH1 0x0 DUP5 ISZERO PUSH2 0xCC6 JUMPI DUP3 DUP8 ADD MLOAD SWAP1 POP JUMPDEST PUSH2 0xCD0 DUP6 DUP3 PUSH2 0xC52 JUMP JUMPDEST DUP7 SSTORE POP PUSH2 0xD38 JUMP JUMPDEST PUSH1 0x1F NOT DUP5 AND PUSH2 0xCE6 DUP7 PUSH2 0xAC2 JUMP JUMPDEST PUSH1 0x0 JUMPDEST DUP3 DUP2 LT ISZERO PUSH2 0xD0E JUMPI DUP5 DUP10 ADD MLOAD DUP3 SSTORE PUSH1 0x1 DUP3 ADD SWAP2 POP PUSH1 0x20 DUP6 ADD SWAP5 POP PUSH1 0x20 DUP2 ADD SWAP1 POP PUSH2 0xCE9 JUMP JUMPDEST DUP7 DUP4 LT ISZERO PUSH2 0xD2B JUMPI DUP5 DUP10 ADD MLOAD PUSH2 0xD27 PUSH1 0x1F DUP10 AND DUP3 PUSH2 0xC34 JUMP JUMPDEST DUP4 SSTORE POP JUMPDEST PUSH1 0x1 PUSH1 0x2 DUP9 MUL ADD DUP9 SSTORE POP POP POP JUMPDEST POP POP POP POP POP POP JUMP JUMPDEST PUSH1 0x0 PUSH2 0xD4B DUP3 PUSH2 0x5FD JUMP JUMPDEST SWAP2 POP PUSH32 0xFFFFFFFFFFFFFFFFFFFFFFFFFFFFFFFFFFFFFFFFFFFFFFFFFFFFFFFFFFFFFFFF DUP3 SUB PUSH2 0xD7D JUMPI PUSH2 0xD7C PUSH2 0xA67 JUMP JUMPDEST JUMPDEST PUSH1 0x1 DUP3 ADD SWAP1 POP SWAP2 SWAP1 POP JUMP JUMPDEST PUSH32 0x596F7520646F6E27742068617665207065726D697373696F6E2E000000000000 PUSH1 0x0 DUP3 ADD MSTORE POP JUMP JUMPDEST PUSH1 0x0 PUSH2 0xDBE PUSH1 0x1A DUP4 PUSH2 0x6B9 JUMP JUMPDEST SWAP2 POP PUSH2 0xDC9 DUP3 PUSH2 0xD88 JUMP JUMPDEST PUSH1 0x20 DUP3 ADD SWAP1 POP SWAP2 SWAP1 POP JUMP JUMPDEST PUSH1 0x0 PUSH1 0x20 DUP3 ADD SWAP1 POP DUP2 DUP2 SUB PUSH1 0x0 DUP4 ADD MSTORE PUSH2 0xDED DUP2 PUSH2 0xDB1 JUMP JUMPDEST SWAP1 POP SWAP2 SWAP1 POP JUMP INVALID LOG2 PUSH5 0x6970667358 0x22 SLT KECCAK256 0x4D SHL PUSH17 0xDFFD4895CC85FD02A543E0050B4FD98E2B SWAP13 0xE 0x29 0xD4 0xDE 0xE6 0xAE CREATE LT 0xED STATICCALL 0xC9 PUSH5 0x736F6C6343 STOP ADDMOD XOR STOP CALLER "
        },
        "methodIdentifiers": {
          "addBook((string,uint16))": "b19a4635",
          "books(uint32)": "68d748ca",
          "count()": "06661abd",
          "editBook(uint32,(string,uint16))": "feaeb5ab",
          "removeBook(uint32)": "e9e7ff0c"
        }
      }
    }
  }
}